:0C0000000C942A000C9400000C940000EA
:10000C000C9400000C9400000C9400000C94000064
:10001C000C9400000C9400000C9400000C94000054
:10002C000C9400000C9400000C9400000C94000044
:10003C000C9400000C9400000C9400000C94000034
:10004C000C9400000C940000F894EE27ECBBF1E04B
:10005C00FBBFEBBFE5BF8DE0A2E0BB27ED938A951C
:10006C00E9F780E094E0A0E6ED930197E9F7EFE57E
:10007C00EDBFE4E0EEBFC0E6D1E00C944500A798DC
:10008C00A198A49AAC9A22D0E0E00E948100E021D1
:10009C0051F0AC9B02C0AC9801C0AC9AA4E6B0E0A5
:1000AC000E94770011C012D0E1E00E948100E02193
:1000BC0051F0AC9B02C0AC9801C0AC9AA4EFB1E07B
:1000CC000E94770001C0AC9ADECFFFCFA0E09999D7
:1000DC00A1E0E1E00E9481000E2EA0E09F99A1E03A
:1000EC000895109639F080ED97E00197F1F7A895F7
:1000FC001197C9F70895EA17E1E009F0EE27089582
:00000001FF
