:040000000C942A0032
:100004000C9400000C9400000C9400000C9400006C
:100014000C9400000C9400000C9400000C9400005C
:100024000C9400000C9400000C9400000C9400004C
:100034000C9400000C9400000C9400000C9400003C
:100044000C9400000C9400000C9400000C9400002C
:10005400F894EE27ECBBF1E0FBBFEBBFE5BF8DE00E
:10006400A2E0BB27ED938A95E9F780E094E0A0E64F
:10007400ED930197E9F7EFE5EDBFE4E0EEBFC0E6ED
:10008400D1E00C944500A798A198A49AAC9A1ED0EC
:10009400E0E00E947D00E02141F0AC9B02C0AC98FE
:1000A40001C0AC9AA4E6B0E00DC010D0E1E00E941B
:1000B4007D00E02149F0AC9B02C0AC9801C0AC9A31
:1000C400A4EFB1E00E947300E2CFFFCFA0E09999C2
:1000D400A1E0E1E00E947D000E2EA0E09F99A1E046
:1000E4000895109639F080ED97E00197F1F7A895FF
:1000F4001197C9F70895EA17E1E009F0EE2708958A
:00000001FF
